{
  "contractName": "patient",
  "abi": [
    {
      "inputs": [],
      "payable": false,
      "stateMutability": "nonpayable",
      "type": "constructor",
      "signature": "constructor"
    },
    {
      "constant": false,
      "inputs": [
        {
          "name": "writer",
          "type": "address"
        }
      ],
      "name": "giveWritePermission",
      "outputs": [],
      "payable": false,
      "stateMutability": "nonpayable",
      "type": "function",
      "signature": "0x6ca883e0"
    },
    {
      "constant": false,
      "inputs": [
        {
          "name": "writer",
          "type": "address"
        }
      ],
      "name": "revokeWritePermission",
      "outputs": [],
      "payable": false,
      "stateMutability": "nonpayable",
      "type": "function",
      "signature": "0xd5357e0c"
    },
    {
      "constant": true,
      "inputs": [
        {
          "name": "writer",
          "type": "address"
        }
      ],
      "name": "canCreateRecords",
      "outputs": [
        {
          "name": "",
          "type": "bool"
        }
      ],
      "payable": false,
      "stateMutability": "view",
      "type": "function",
      "signature": "0xe77f9871"
    }
  ],
  "bytecode": "0x608060405234801561001057600080fd5b50336000806101000a81548173ffffffffffffffffffffffffffffffffffffffff021916908373ffffffffffffffffffffffffffffffffffffffff1602179055506105dc806100606000396000f3fe608060405260043610610057576000357c0100000000000000000000000000000000000000000000000000000000900463ffffffff1680636ca883e01461005c578063d5357e0c146100ad578063e77f9871146100fe575b600080fd5b34801561006857600080fd5b506100ab6004803603602081101561007f57600080fd5b81019080803573ffffffffffffffffffffffffffffffffffffffff169060200190929190505050610167565b005b3480156100b957600080fd5b506100fc600480360360208110156100d057600080fd5b81019080803573ffffffffffffffffffffffffffffffffffffffff169060200190929190505050610373565b005b34801561010a57600080fd5b5061014d6004803603602081101561012157600080fd5b81019080803573ffffffffffffffffffffffffffffffffffffffff16906020019092919050505061055a565b604051808215151515815260200191505060405180910390f35b6000809054906101000a900473ffffffffffffffffffffffffffffffffffffffff1673ffffffffffffffffffffffffffffffffffffffff163373ffffffffffffffffffffffffffffffffffffffff1614151561022b576040517f08c379a00000000000000000000000000000000000000000000000000000000081526004018080602001828103825260178152602001807f596f7520646f6e2774206861766520726967687473212100000000000000000081525060200191505060405180910390fd5b60001515600160008373ffffffffffffffffffffffffffffffffffffffff1673ffffffffffffffffffffffffffffffffffffffff16815260200190815260200160002060009054906101000a900460ff161515141515610319576040517f08c379a00000000000000000000000000000000000000000000000000000000081526004018080602001828103825260228152602001807f596f7520616c726564792068617665207772697465207065726d697373696f6e81526020017f212100000000000000000000000000000000000000000000000000000000000081525060400191505060405180910390fd5b60018060008373ffffffffffffffffffffffffffffffffffffffff1673ffffffffffffffffffffffffffffffffffffffff16815260200190815260200160002060006101000a81548160ff02191690831515021790555050565b6000809054906101000a900473ffffffffffffffffffffffffffffffffffffffff1673ffffffffffffffffffffffffffffffffffffffff163373ffffffffffffffffffffffffffffffffffffffff16141515610437576040517f08c379a00000000000000000000000000000000000000000000000000000000081526004018080602001828103825260178152602001807f596f7520646f6e2774206861766520726967687473212100000000000000000081525060200191505060405180910390fd5b60011515600160008373ffffffffffffffffffffffffffffffffffffffff1673ffffffffffffffffffffffffffffffffffffffff16815260200190815260200160002060009054906101000a900460ff1615151415156104ff576040517f08c379a000000000000000000000000000000000000000000000000000000000815260040180806020018281038252601e8152602001807f4e6f206e65656420746f207265766f6b65207065726d697373696f6e2121000081525060200191505060405180910390fd5b6000600160008373ffffffffffffffffffffffffffffffffffffffff1673ffffffffffffffffffffffffffffffffffffffff16815260200190815260200160002060006101000a81548160ff02191690831515021790555050565b6000600160008373ffffffffffffffffffffffffffffffffffffffff1673ffffffffffffffffffffffffffffffffffffffff16815260200190815260200160002060009054906101000a900460ff16905091905056fea165627a7a723058200b974cc86177d94f0e1692f34084e6c86ac4842cb79c54180fa4d333225f618a0029",
  "source": "pragma solidity >=0.5.0;\r\n\r\ncontract patient {\r\n    address patientAddress;\r\n\r\n    mapping(address => bool) canCreate;\r\n\r\n    constructor() public {\r\n        patientAddress = msg.sender;\r\n    }\r\n\r\n    function giveWritePermission(address writer) public {\r\n        require(msg.sender == patientAddress, \"You don't have rights!!\");\r\n        require(\r\n            canCreate[writer] == false,\r\n            \"You alredy have write permission!!\"\r\n        );\r\n        canCreate[writer] = true;\r\n    }\r\n\r\n    function revokeWritePermission(address writer) public {\r\n        require(msg.sender == patientAddress, \"You don't have rights!!\");\r\n        require(canCreate[writer] == true, \"No need to revoke permission!!\");\r\n        canCreate[writer] = false;\r\n    }\r\n\r\n    function canCreateRecords(address writer) public view returns (bool) {\r\n        return canCreate[writer];\r\n    }\r\n}\r\n",
  "sourcePath": "C:/Users/HP WORLD/Desktop/Final Project/Project - Copy/contracts/Patient.sol",
  "compiler": {
    "name": "solc",
    "version": "0.5.0+commit.1d4f565a.Emscripten.clang"
  },
  "schemaVersion": "3.0.1",
  "updatedAt": "2021-03-24T05:41:11.312Z",
  "devdoc": {
    "methods": {}
  },
  "userdoc": {
    "methods": {}
  }
}