{
  "contractName": "patient",
  "abi": [
    {
      "inputs": [],
      "payable": false,
      "stateMutability": "nonpayable",
      "type": "constructor"
    },
    {
      "constant": false,
      "inputs": [
        {
          "name": "writer",
          "type": "address"
        }
      ],
      "name": "giveWritePermission",
      "outputs": [],
      "payable": false,
      "stateMutability": "nonpayable",
      "type": "function"
    },
    {
      "constant": false,
      "inputs": [
        {
          "name": "writer",
          "type": "address"
        }
      ],
      "name": "revokeWritePermission",
      "outputs": [],
      "payable": false,
      "stateMutability": "nonpayable",
      "type": "function"
    },
    {
      "constant": true,
      "inputs": [
        {
          "name": "writer",
          "type": "address"
        }
      ],
      "name": "canCreateRecords",
      "outputs": [
        {
          "name": "",
          "type": "bool"
        }
      ],
      "payable": false,
      "stateMutability": "view",
      "type": "function"
    }
  ],
  "bytecode": "0x608060405234801561001057600080fd5b50336000806101000a81548173ffffffffffffffffffffffffffffffffffffffff021916908373ffffffffffffffffffffffffffffffffffffffff1602179055506105dc806100606000396000f3fe608060405260043610610057576000357c0100000000000000000000000000000000000000000000000000000000900463ffffffff1680636ca883e01461005c578063d5357e0c146100ad578063e77f9871146100fe575b600080fd5b34801561006857600080fd5b506100ab6004803603602081101561007f57600080fd5b81019080803573ffffffffffffffffffffffffffffffffffffffff169060200190929190505050610167565b005b3480156100b957600080fd5b506100fc600480360360208110156100d057600080fd5b81019080803573ffffffffffffffffffffffffffffffffffffffff169060200190929190505050610373565b005b34801561010a57600080fd5b5061014d6004803603602081101561012157600080fd5b81019080803573ffffffffffffffffffffffffffffffffffffffff16906020019092919050505061055a565b604051808215151515815260200191505060405180910390f35b6000809054906101000a900473ffffffffffffffffffffffffffffffffffffffff1673ffffffffffffffffffffffffffffffffffffffff163373ffffffffffffffffffffffffffffffffffffffff1614151561022b576040517f08c379a00000000000000000000000000000000000000000000000000000000081526004018080602001828103825260178152602001807f596f7520646f6e2774206861766520726967687473212100000000000000000081525060200191505060405180910390fd5b60001515600160008373ffffffffffffffffffffffffffffffffffffffff1673ffffffffffffffffffffffffffffffffffffffff16815260200190815260200160002060009054906101000a900460ff161515141515610319576040517f08c379a00000000000000000000000000000000000000000000000000000000081526004018080602001828103825260228152602001807f596f7520616c726564792068617665207772697465207065726d697373696f6e81526020017f212100000000000000000000000000000000000000000000000000000000000081525060400191505060405180910390fd5b60018060008373ffffffffffffffffffffffffffffffffffffffff1673ffffffffffffffffffffffffffffffffffffffff16815260200190815260200160002060006101000a81548160ff02191690831515021790555050565b6000809054906101000a900473ffffffffffffffffffffffffffffffffffffffff1673ffffffffffffffffffffffffffffffffffffffff163373ffffffffffffffffffffffffffffffffffffffff16141515610437576040517f08c379a00000000000000000000000000000000000000000000000000000000081526004018080602001828103825260178152602001807f596f7520646f6e2774206861766520726967687473212100000000000000000081525060200191505060405180910390fd5b60011515600160008373ffffffffffffffffffffffffffffffffffffffff1673ffffffffffffffffffffffffffffffffffffffff16815260200190815260200160002060009054906101000a900460ff1615151415156104ff576040517f08c379a000000000000000000000000000000000000000000000000000000000815260040180806020018281038252601e8152602001807f4e6f206e65656420746f207265766f6b65207065726d697373696f6e2121000081525060200191505060405180910390fd5b6000600160008373ffffffffffffffffffffffffffffffffffffffff1673ffffffffffffffffffffffffffffffffffffffff16815260200190815260200160002060006101000a81548160ff02191690831515021790555050565b6000600160008373ffffffffffffffffffffffffffffffffffffffff1673ffffffffffffffffffffffffffffffffffffffff16815260200190815260200160002060009054906101000a900460ff16905091905056fea165627a7a723058201268dd6cf8118333914d310087ed6b1b1fdc0616b8eec5cfa613ff6284d78f5a0029",
  "source": "pragma solidity >=0.5.0;\n\ncontract patient {\n    address patientAddress;\n\n    mapping(address => bool) canCreate;\n\n    constructor() public {\n        patientAddress = msg.sender;\n    }\n\n    function giveWritePermission(address writer) public {\n        require(msg.sender == patientAddress, \"You don't have rights!!\");\n        require(\n            canCreate[writer] == false,\n            \"You alredy have write permission!!\"\n        );\n        canCreate[writer] = true;\n    }\n\n    function revokeWritePermission(address writer) public {\n        require(msg.sender == patientAddress, \"You don't have rights!!\");\n        require(canCreate[writer] == true, \"No need to revoke permission!!\");\n        canCreate[writer] = false;\n    }\n\n    function canCreateRecords(address writer) public view returns (bool) {\n        return canCreate[writer];\n    }\n}\n",
  "sourcePath": "/home/nishitaprajapati/Desktop/Simform/Project/contracts/Patient.sol",
  "compiler": {
    "name": "solc",
    "version": "0.5.0+commit.1d4f565a.Emscripten.clang"
  },
  "schemaVersion": "3.0.1",
  "updatedAt": "2021-03-16T11:57:55.287Z",
  "devdoc": {
    "methods": {}
  },
  "userdoc": {
    "methods": {}
  }
}