{
  "contractName": "record",
  "abi": [
    {
      "inputs": [
        {
          "name": "_recordId",
          "type": "bytes"
        },
        {
          "name": "_patient",
          "type": "address"
        },
        {
          "name": "_doctor",
          "type": "address"
        },
        {
          "name": "_key",
          "type": "string"
        },
        {
          "name": "_sign",
          "type": "bytes"
        }
      ],
      "payable": false,
      "stateMutability": "nonpayable",
      "type": "constructor"
    },
    {
      "constant": false,
      "inputs": [
        {
          "name": "viewer",
          "type": "address"
        }
      ],
      "name": "giveViewPermission",
      "outputs": [],
      "payable": false,
      "stateMutability": "nonpayable",
      "type": "function"
    },
    {
      "constant": false,
      "inputs": [
        {
          "name": "viewer",
          "type": "address"
        }
      ],
      "name": "revokeViewPermission",
      "outputs": [],
      "payable": false,
      "stateMutability": "nonpayable",
      "type": "function"
    },
    {
      "constant": true,
      "inputs": [],
      "name": "getDecryptionKey",
      "outputs": [
        {
          "name": "",
          "type": "string"
        }
      ],
      "payable": false,
      "stateMutability": "view",
      "type": "function"
    }
  ],
  "bytecode": "0x608060405234801561001057600080fd5b50604051610a62380380610a62833981018060405260a081101561003357600080fd5b81019080805164010000000081111561004b57600080fd5b8281019050602081018481111561006157600080fd5b815185600182028301116401000000008211171561007e57600080fd5b5050929190602001805190602001909291908051906020019092919080516401000000008111156100ae57600080fd5b828101905060208101848111156100c457600080fd5b81518560018202830111640100000000821117156100e157600080fd5b505092919060200180516401000000008111156100fd57600080fd5b8281019050602081018481111561011357600080fd5b815185600182028301116401000000008211171561013057600080fd5b5050929190505050836000806101000a81548173ffffffffffffffffffffffffffffffffffffffff021916908373ffffffffffffffffffffffffffffffffffffffff160217905550846002908051906020019061018e9291906102b8565b5082600160006101000a81548173ffffffffffffffffffffffffffffffffffffffff021916908373ffffffffffffffffffffffffffffffffffffffff16021790555081600390805190602001906101e6929190610338565b5080600490805190602001906101fd9291906102b8565b506001600560008573ffffffffffffffffffffffffffffffffffffffff1673ffffffffffffffffffffffffffffffffffffffff16815260200190815260200160002060006101000a81548160ff0219169083151502179055506001600560008673ffffffffffffffffffffffffffffffffffffffff1673ffffffffffffffffffffffffffffffffffffffff16815260200190815260200160002060006101000a81548160ff02191690831515021790555050505050506103dd565b828054600181600116156101000203166002900490600052602060002090601f016020900481019282601f106102f957805160ff1916838001178555610327565b82800160010185558215610327579182015b8281111561032657825182559160200191906001019061030b565b5b50905061033491906103b8565b5090565b828054600181600116156101000203166002900490600052602060002090601f016020900481019282601f1061037957805160ff19168380011785556103a7565b828001600101855582156103a7579182015b828111156103a657825182559160200191906001019061038b565b5b5090506103b491906103b8565b5090565b6103da91905b808211156103d65760008160009055506001016103be565b5090565b90565b610676806103ec6000396000f3fe608060405260043610610057576000357c0100000000000000000000000000000000000000000000000000000000900463ffffffff168063170cebfd1461005c5780637d6ddcc1146100ad578063e8c3b6a31461013d575b600080fd5b34801561006857600080fd5b506100ab6004803603602081101561007f57600080fd5b81019080803573ffffffffffffffffffffffffffffffffffffffff16906020019092919050505061018e565b005b3480156100b957600080fd5b506100c261039b565b6040518080602001828103825283818151815260200191508051906020019080838360005b838110156101025780820151818401526020810190506100e7565b50505050905090810190601f16801561012f5780820380516001836020036101000a031916815260200191505b509250505060405180910390f35b34801561014957600080fd5b5061018c6004803603602081101561016057600080fd5b81019080803573ffffffffffffffffffffffffffffffffffffffff169060200190929190505050610505565b005b6000809054906101000a900473ffffffffffffffffffffffffffffffffffffffff1673ffffffffffffffffffffffffffffffffffffffff163373ffffffffffffffffffffffffffffffffffffffff16141515610278576040517f08c379a00000000000000000000000000000000000000000000000000000000081526004018080602001828103825260248152602001807f4f6e6c792070617469656e742063616e207265766f6b65207065726d6973736981526020017f6f6e21210000000000000000000000000000000000000000000000000000000081525060400191505060405180910390fd5b60011515600560008373ffffffffffffffffffffffffffffffffffffffff1673ffffffffffffffffffffffffffffffffffffffff16815260200190815260200160002060009054906101000a900460ff161515141515610340576040517f08c379a00000000000000000000000000000000000000000000000000000000081526004018080602001828103825260138152602001807f4e6f206e65656420746f207265766f6b6521210000000000000000000000000081525060200191505060405180910390fd5b6000600560008373ffffffffffffffffffffffffffffffffffffffff1673ffffffffffffffffffffffffffffffffffffffff16815260200190815260200160002060006101000a81548160ff02191690831515021790555050565b606060011515600560003373ffffffffffffffffffffffffffffffffffffffff1673ffffffffffffffffffffffffffffffffffffffff16815260200190815260200160002060009054906101000a900460ff161515141515610465576040517f08c379a00000000000000000000000000000000000000000000000000000000081526004018080602001828103825260208152602001807f596f7520646f206e6f7420686176652076696577696e6720726967687473212181525060200191505060405180910390fd5b60038054600181600116156101000203166002900480601f0160208091040260200160405190810160405280929190818152602001828054600181600116156101000203166002900480156104fb5780601f106104d0576101008083540402835291602001916104fb565b820191906000526020600020905b8154815290600101906020018083116104de57829003601f168201915b5050505050905090565b6000809054906101000a900473ffffffffffffffffffffffffffffffffffffffff1673ffffffffffffffffffffffffffffffffffffffff163373ffffffffffffffffffffffffffffffffffffffff161415156105ef576040517f08c379a00000000000000000000000000000000000000000000000000000000081526004018080602001828103825260228152602001807f4f6e6c792070617469656e742063616e2067697665207065726d697373696f6e81526020017f212100000000000000000000000000000000000000000000000000000000000081525060400191505060405180910390fd5b6001600560008373ffffffffffffffffffffffffffffffffffffffff1673ffffffffffffffffffffffffffffffffffffffff16815260200190815260200160002060006101000a81548160ff0219169083151502179055505056fea165627a7a72305820f33d053b16e6fbc175f6fe666ac73aed4aac3179f6d39fd354f40c5656ae2ba90029",
  "source": "pragma solidity >=0.5.0;\n\ncontract record {\n    address ownerPatient;\n    address creatorDoctor;\n\n    bytes recordId;\n    string decryptionKey;\n    bytes doctorSign;\n\n    mapping(address => bool) canView;\n    mapping(address => bool) canCreate;\n\n    constructor(\n        bytes memory _recordId,\n        address _patient,\n        address _doctor,\n        string memory _key,\n        bytes memory _sign\n    ) public {\n        ownerPatient = _patient;\n        recordId = _recordId;\n        creatorDoctor = _doctor;\n        decryptionKey = _key;\n        doctorSign = _sign;\n        canView[_doctor] = true;\n        canView[_patient] = true;\n    }\n\n    function giveViewPermission(address viewer) public {\n        require(\n            msg.sender == ownerPatient,\n            \"Only patient can give permission!!\"\n        );\n        //require(canView[viewer] == false, \"Already has viewing rights!!\");\n        canView[viewer] = true;\n    }\n\n    function revokeViewPermission(address viewer) public {\n        require(\n            msg.sender == ownerPatient,\n            \"Only patient can revoke permission!!\"\n        );\n        require(canView[viewer] == true, \"No need to revoke!!\");\n        canView[viewer] = false;\n    }\n\n    function getDecryptionKey() public view returns (string memory) {\n        require(\n            canView[msg.sender] == true,\n            \"You do not have viewing rights!!\"\n        );\n        return decryptionKey;\n    }\n}\n",
  "sourcePath": "/home/nishitaprajapati/Desktop/Simform/Project/contracts/Record.sol",
  "compiler": {
    "name": "solc",
    "version": "0.5.0+commit.1d4f565a.Emscripten.clang"
  },
  "schemaVersion": "3.0.1",
  "updatedAt": "2021-03-16T11:57:55.294Z",
  "devdoc": {
    "methods": {}
  },
  "userdoc": {
    "methods": {}
  }
}